:020000040800F2
:10600000D83C0020DD610008B3690008E7610008A2
:10601000B1690008A1690008BD6B0008000000001C
:1060200000000000000000000000000045610008C2
:10603000A36900080000000089610008916A000857
:10604000F7610008F7610008F7610008F7610008D0
:10605000F7610008F7610008F7610008F7610008C0
:10606000F7610008F7610008F7610008F7610008B0
:10607000F7610008F7610008F7610008F7610008A0
:10608000F7610008F7610008F7610008F761000890
:10609000F7610008F7610008F7610008F761000880
:1060A000F7610008F7610008F7610008F761000870
:1060B000F7610008F7610008F7610008F761000860
:1060C000F7610008F7610008F7610008F761000850
:1060D000F7610008096B0008656B0008F7610008AC
:1060E000F7610008F7610008F7610008F761000830
:1060F000F7610008F7610008F7610008F761000820
:10610000F7610008F7610008F7610008F76100080F
:10611000F7610008F7610008F7610008F7610008FF
:10612000F7610008F7610008F7610008F7610008EF
:10613000DFF80CD000F000FB00480047498700085A
:10614000D83C0020224B19680868B0E8F00F80F3B3
:106150000988BFF36F8F4FF0000080F311884EF075
:106160000D0E70470000000006480068006880F3CC
:10617000088862B661B6BFF34F8FBFF36F8F00DF41
:1061800000BF00BF08ED00E0EFF30980BFF36F8FA1
:106190000F4B1A6820E9F00F106008B54FF050005F
:1061A00080F31188BFF34F8FBFF36F8F04F0BEF9F8
:1061B0004FF0000080F31188BDE8084019680868B6
:1061C000B0E8F00F80F30988BFF36F8F704700BF0E
:1061D00010000020EFF3058070470000064880475C
:1061E00006480047FEE7FEE7FEE7FEE7FEE7FEE7BC
:1061F000FEE7FEE7FEE7FEE7BD6A00083161000842
:106200000048704744AE000840EA01039B0703D0F2
:1062100009E008C9121F08C0042AFAD203E011F8E5
:10622000013B00F8013B521EF9D27047D2B201E0A7
:1062300000F8012B491EFBD270470022F6E710B58B
:1062400013460A4604461946FFF7F0FF204610BDE4
:1062500030B505462A460B4612F8010B13F8014BE0
:1062600008B1A042F8D01CB1002802D06D1CF1E7A3
:10627000284630BD421C10F8011B0029FBD1801AB2
:10628000704710B5002200E0521C835C8C5CA34276
:1062900001D1002BF8D1D8B2E1B2401A10BD0346AB
:1062A00011F8012B00F8012B002AF9D1184670478C
:1062B00070B5064600F094FC046805460A220021E9
:1062C000304600F049F82C6070BD30B50B460146F1
:1062D00000202022012409E021FA02F59D4205D385
:1062E00003FA02F5491B04FA02F52844151EA2F12F
:1062F0000102F1DC30BD2DE9F05F05460020924639
:106300009B4688460646814640241BE02846414677
:106310004746224600F031FA53465A46C01A914188
:1063200010D311461846224600F018FA2D1A67EBD2
:1063300001084F4622460120002100F00FFA17EB1A
:1063400000094E41201EA4F10104DFDC484631461D
:106350002A464346BDE8F09F2DE9F04791460F4697
:1063600080460446002614F8015B2DB1FFF748FF74
:106370000068405DC007F6D12B2D02D02D2D18D01E
:10638000641E4A463946204600F019FA27B139689A
:10639000A14201D1C7F8008071054FF002040BD56E
:1063A0004042002803DD00F01BFC0460A007BDE8AC
:1063B000F08746F48066E4E70028F8DA00F010FC85
:1063C00004606FF00040F2E72DE9FE4F804681EA5D
:1063D0000300C00F0C46009021F0004123F000455F
:1063E000B8EB0200A94105D24046214690461C4622
:1063F0000B46024623F00040104347D0270DC7F359
:106400000A00C3F30A510290401A019040286BDA47
:10641000C3F3130040F4801B0098924620B1002380
:10642000D2EB030A63EB0B0B01985946C0F1400213
:10643000504600F093F906460D4650465946019ADB
:1064400000F0ABF910EB08006141002487EA11521B
:1064500084EAE7731A4340D0009A62B3019A012A92
:106460004FEA075215DC001B61EB02014FF00042BE
:1064700002EA0752CDE90042001C41F58011324684
:106480002B4600F0FAF903B0BDE8F08F40462146F4
:10649000F9E7001B61EB0201001C41F580130018B5
:1064A0005B412018A2F5001747EB030140EAD570C5
:1064B000B6196D4111E06D084FEA360645EAC07520
:1064C0004FEA0752001B61EB0201001C41F58011ED
:1064D00049084FEA30000019514132462B4603B0BB
:1064E000BDE8F04F00F0BAB9009801224000002347
:1064F000D0EB020263EBE073009821464FEAE074B0
:10650000B8EB000061EB0401E9E783F000435BE7CF
:1065100081F0004158E72DE9FE4F81EA030404F0C1
:10652000004421F0004100944FF0000B23F00043A1
:1065300050EA01045ED052EA03045BD0C3F30A546C
:10654000C1F30A552C44A4F2F3340194A0FB025485
:10655000C1F3130141F48011C3F3130343F4801317
:1065600001FB024400FB034E840A970A44EA81546B
:1065700047EA8357A4FB076802958D0A05FB078548
:106580004FEA932C04FB0C542705029D4FEA065852
:1065900047EA1637B5EB08056EEB070C870E920E2F
:1065A00047EA811742EA8312A7FB0201B6EB0B010F
:1065B00064EB00042B0D43EA0C335E1844EB1C50D3
:1065C000DA465146E7FB0201C5F313044FEA0B33E9
:1065D00043EA14534FEA0432019C43EA0603A4F150
:1065E0000C040294009CCDE900B400F046F903B01D
:1065F000BDE8F08F00200146F9E72DE9F04D81EA72
:10660000030404F0004B21F0004514464FF0000A4B
:1066100023F0004150EA050220D054EA01021DD0C7
:10662000C5F30A570246C5F31303C1F31300C1F3C0
:106630000A5640F4801543F48013A7EB0608101B9C
:10664000D64608F2FD3873EB050002D308F10108C5
:1066500001E092185B41B8F1000F03DA0020014617
:10666000BDE8F08D00204FF48011064684460EE010
:10667000171B73EB050705D3121B63EB05030643DA
:106680004CEA010C49084FEA300092185B4150EA8D
:106690000107EDD152EA030012D082EA040083EA36
:1066A0000501084305D0101BAB4106D2012200238F
:1066B00006E000224FF0004302E06FF001025310A9
:1066C0001AEB06004CEB085110EB0A0041EB0B01F2
:1066D000BDE8F04D00F0C2B8C1F30A52C1F3130196
:1066E00040F2FF3341F480119A4202DA0020014661
:1066F000704740F233439A42A2F2334202DC5242E4
:1067000000F03BB800F02AB830B5041E71F1000467
:1067100004DB4FF00044404264EB0101141E73F1AE
:10672000000405DB1C464FF00043524263EB0403B8
:10673000994208BF904230BD064C074D06E0E06824
:1067400040F0010394E8070098471034AC42F6D3B8
:10675000FFF7F2FCB8AF0008D8AF0008202A04DB2E
:10676000203A00FA02F1002070479140C2F1200364
:1067700020FA03F3194390407047202A04DB203AA3
:1067800021FA02F00021704721FA02F3D040C2F151
:1067900020029140084319467047202A06DBCB1798
:1067A000203A41FA02F043EAE07306E041FA02F3CC
:1067B000D040C2F1200291400843194670472DE9AC
:1067C000F05F82460078002715468B460AF10104E7
:1067D000B946302801D09DB113E014F8010B012710
:1067E000782803D0582801D045B10AE00DB1102D0A
:1067F00007D10027102514F8010B02E0082500E05E
:106800000A250026B0460EE005FB080005FB06F150
:10681000012701EB10461FFA80F8B6F5803F00D340
:10682000B94614F8010B294600F075F80028EBDA98
:10683000BBF1000F05D00FB1641E00E05446CBF849
:106840000040B9F1000F06D000F0CAF90221016042
:10685000C81EBDE8F09F48EA0640FAE710B5141ECE
:1068600073F1000408DA401C41F1000192185B4109
:106870001A4301D120F0010010BD2DE9F04D9246E0
:106880009B4611B1B1FA81F202E0B0FA80F22032F7
:106890009046FFF763FF04460F4640EA0A0041EACC
:1068A0000B0153465A46084313D0114653EA0100E0
:1068B00019D0C8F140025046FFF75FFF05460E466B
:1068C000504659464246FFF749FF084305D001208C
:1068D00004E020463946BDE8F08D0020054346EA35
:1068E000E0762C4337430A986305E40AA0EB0800DE
:1068F0000022FD0A44EA47540A3002D5002001462E
:10690000E9E7010510196941DDE908450019694108
:10691000BDE8F04DA2E73A2800D2303820F020023E
:10692000412A01D3A2F13700884201D34FF0FF3052
:10693000704770B58C1810F8015B15F0070301D192
:1069400010F8013B2A1106D110F8012B03E010F8D2
:10695000016B01F8016B5B1EF9D12B0705D40023F5
:10696000521E0DD401F8013BFAE710F8013BCB1A97
:10697000921C03E013F8015B01F8015B521EF9D58C
:10698000A142D8D3002070BD01F0FAF84FF47A7418
:10699000204603F0C1FC00F0FFFE01F03FFDF7E7E9
:1069A000FEE77047014800787047000008000020AB
:1069B000FEE7704708B500200090114802F02CFE59
:1069C00001F048FB0F4C4FF0FF3604F12005314633
:1069D000A06E03F0B9FE0128F9D1284602F069FC47
:1069E0000028F4D103E09DF8000002F0EBFC012246
:1069F0006946284602F064FC0028E8D0F3E700006E
:106A000095940008681C002008B5002000901748E5
:106A100000F046FE164800F051FD01F031FB134D29
:106A2000144C4FF0FF3608353146A06C03F08CFE55
:106A30000128F9D10F4802F03CFC0028F4D10DE008
:106A40000A499DF8000000F0D1FD0D2806D1294625
:106A5000074802F0F1FE054800F0C0FD012269463A
:106A6000044802F02DFC0028DED0E9E7981B002046
:106A70007C0000201C1C002010B54FF4E16003F0E6
:106A80004BFC00F09FFEBDE81040002003F064BC0A
:106A900010B5502080F31188BFF34F8FBFF36F8F75
:106AA00003F050FF18B104494FF0805008600020F7
:106AB00080F3118810BD000004ED00E00E4801686D
:106AC00041F00101016041680C4A114041600268D7
:106AD0000B490A400260026822F480220260426888
:106AE000084B1A40426002680A4002604FF41F01DE
:106AF000816002F0CDBF0000001002400C00FFE8F2
:106B0000FFFFF6FEFFFF00F770B5134D0020A860F1
:106B100005F10C040521206803F0DFFA70B120684C
:106B200003F086FA2870012229460C4802F007FC7F
:106B30000A48211F2038806E03F0C8FD0721206815
:106B400003F0CBFA002805D02068BDE87040044966
:106B500003F0E7BA70BD000074020020881C00201A
:106B60000703070070B5124D0020686005F10804A6
:106B70000521206803F0B1FA68B1206803F058FAE3
:106B80002870012229460B4802F0D9FB0948211F31
:106B9000806C03F09BFD0721206803F09EFA00281B
:106BA00005D02068BDE87040034903F0BABA70BD53
:106BB000B40100201C1C002007030700FEE70000B2
:106BC0000FB4054B10B503A9044A029800F0DEF893
:106BD00010BC5DF814FB0000A9830008A802002087
:106BE00000487047AC02002002E008C8121F08C12C
:106BF000002AFAD170477047002001E001C1121F3E
:106C0000002AFBD1704700002DE9FF5F82B0002110
:106C1000DDE90430020DDDF840B0034318D044F63E
:106C20001050A2F2FF3242431514119801281FD0D0
:106C3000A5EB0B00401C5FEA000A4FF000064E4F28
:106C4000DFF83891B046504615D5CAF1000413E07C
:106C5000119801244AA3012801D16FEA0B0102987F
:106C6000119AC0E90031C0E9024206B0BDE8F09FC8
:106C7000CBF10000DFE704460021404A491842EB0F
:106C80000450CDE9001012E0E00707D032463B4641
:106C900040464946FFF73FFC8046894632463B4620
:106CA00010461946FFF737FC06460F466410002CC5
:106CB000EAD1DDE90401DDE90023BAF1000F06DACB
:106CC000FFF729FC42464B46FFF725FC05E0FFF79E
:106CD00094FC42464B46FFF790FC04460E460022C9
:106CE000284BFFF711FD03D84FF0FF30014607E0B6
:106CF0000022254B20463146FFF766FBFFF7ECFCF0
:106D0000102409E0002C0ADB0A220023FFF7F3FA23
:106D1000039B30321A55641E50EA0102F2D1641C02
:106D2000039AC4F111031444119A012A03D00122D9
:106D300008430DD10AE0084304D000204FF0110BA6
:106D4000119072E7A3EB0B056D1E0DE05B4504DDB2
:106D50004FF0000205F1010504E003DA4FF00002F4
:106D6000A5F10105002AECD002981199C0E9023181
:106D7000C0E9004579E70000000014400000F03F42
:106D8000300000000000F0430000E03F2DE9FF4F1D
:106D900095B09B468946064600250FE2252877D107
:106DA00000242746F84A0121059400E0044316F820
:106DB000013F203B01FA03F01042F7D130782A2836
:106DC00011D06FF02F033078A0F13002092A16D8C5
:106DD000059A44F0020402EB820203EB42021044E3
:106DE000761C0590EFE759F8042B0592002A03DA88
:106DF000504244F40054059044F00204761C30786C
:106E00002E2816D116F8010F44F004042A280DD0BC
:106E10006FF02F023078A0F13003092B09D807EB6F
:106E2000870302EB4303C718761CF3E759F8047B8A
:106E3000761C30786C280FD006DC4C2817D06828D8
:106E40000DD06A2814D104E0742810D07A280FD10C
:106E50000DE044F400140AE044F4801401E044F42A
:106E600040147278824202D104F58014761C761C9C
:106E7000307866280BD013DC582877D009DC00283E
:106E800075D04528F6D04628F4D047281AD19DE180
:106E900018E0632835D0642879D0652812D195E1AF
:106EA000702873D008DC6728F1D069286FD06E286D
:106EB0000DD06F2806D1B5E073282CD0752875D079
:106EC000782874D05A46179990476D1C75E1C4F321
:106ED0000250022809D003280DD0D9F80010042848
:106EE0000DD00D6009F1040967E1D9F80010EA1727
:106EF000C1E90052F6E7D9F800100D80F2E70D70F5
:106F0000F0E719F8041B8DF8001000208DF801003F
:106F1000EA46012003E059F804AB4FF0FF30610767
:106F20004FF0000102D40DE008F101018846B9429A
:106F30000FDA8045F8DB1AF808100029F4D108E0D0
:106F400008F1010188468142FADB1AF8081000298D
:106F5000F6D105985B46A0EB080721463846179AFC
:106F600000F094FA284400EB080507E04DE029E121
:106F70000DE01AF8010B5A4617999047B8F101082D
:106F8000F7D25B4621463846179A13E142E00A22BF
:106F90000092C4F302524FF0000A022A08D059F8B6
:106FA00004CB032A4FEAEC710AD00DE029E02AE075
:106FB00009F1070121F00702F2E802C1914609E058
:106FC0000FFA8CFC4FEAEC71042A03D14FFA8CFCC7
:106FD0004FEAEC71002907DA0A460021DCF1000CC7
:106FE00061EB02012D2202E0220504D52B228DF84F
:106FF0000420012203E0E20701D02022F7E79046B7
:1070000059E00A2102E010220DE010214FF0000AA1
:1070100000910BE010224FF0000A44F0040408270E
:10702000009203E008224FF0000A0092C4F30252DB
:10703000022A05D059F804CB0021032A08D009E020
:1070400009F1070121F00702F2E802C1914605E0CB
:107050001FFA8CFC042A01D10CF0FF0C4FF0000841
:10706000220728D5702806D0009B83F0100353EA2E
:107070000A0305D00EE040228DF80420012208E02A
:107080005CEA010206D030228DF804208DF805005C
:1070900002229046009B83F0080353EA0A030AD1B8
:1070A0005CEA010201D1620705D530228DF8042087
:1070B0004FF001087F1E582804D034A003900EA87A
:1070C00002900DE036A0F9E753466046009AFFF7BC
:1070D00012F984460398825C0298401E0290027066
:1070E0005CEA0100F0D1029806A9081A00F1200A12
:1070F000600702D524F4803400E00127574502DD03
:10710000A7EB0A0000E0002000EB0A0100900598C0
:107110004144401A0590E00306D45B462146179A85
:10712000059800F0B3F90544002706E001A85A4687
:10713000C05D179990476D1C7F1C4745F6DBE00347
:107140000CD55B462146179A059800F09FF9054437
:1071500004E030205A46179990476D1C0099481E4C
:1071600000900029F5DC08E0029802995A46007860
:10717000491C0291179990476D1CBAF10001AAF1C0
:10718000010AF1DC65E100000928010030313233E9
:107190003435363738396162636465660000000053
:1071A000303132333435363738394142434445463D
:1071B0000000000000F058F90544761C30780028E3
:1071C0007FF4ECAD19B02846BDE8F08F620700D41B
:1071D000062709F1070222F0070CFCE80223E1462A
:1071E00003F000485FEA080C02D00FF2702C0DE0AB
:1071F0005FEA045C02D50FF2682C07E05FEAC47C0A
:1072000002D00FF2602C01E0AFF2700C4FF0FF38AB
:1072100023F00043CDF850C065280CD006DC45288B
:1072200009D046281DD047283DD13DE0662818D01A
:1072300067287ED138E00021112F01DB112000E00A
:10724000781CCDE9000106A90EA8FFF7DDFCDDE9F9
:107250000F010E9A03910021009207F1010A049197
:107260004DE04FF000400097CDE9011006A90EA8AF
:10727000FFF7CAFCDDE90F0203920E9B1199002271
:10728000DDF80CA00093049211B9791C00EB010AFF
:10729000B7EB0A0004D4C0F1FF3007F1010A0490F3
:1072A000AAEB0700019044E0012F00DA012700213A
:1072B000112F01DD112000E03846CDE9000106A9BB
:1072C0000EA8FFF7A1FCDDE90F010E9A0391002142
:1072D00004910092BA4621070CD40399514500DA73
:1072E0008A46BAF1010F05DD009AAAF10101515C4D
:1072F000302908D0B84202DA10F1040F06DA012171
:10730000CDE9011015E0AAF10101E9E7002805DC4B
:10731000049901440491AAEB000102E0411C51458B
:1073200000DD8A460499401A401C01904FF000404D
:107330000290200704D40198504501DBCDF8048069
:1073400000208DF84F0002980DF14F07B0F1004F6B
:1073500025D02B200E9002984FF0020800280CDA5E
:10736000404202902D200E9007E00A210298FEF77D
:10737000ACFF3031029007F8011DB8F10001A8F10F
:107380000108F2DC02980028EFD1791E0E980870EF
:10739000307800F0200040F0450007F8020D12A8F8
:1073A000C01B00F107081498007800B1012000EB21
:1073B0000A01019801EBE07105984144401A401E12
:1073C0000590E00306D45B462146179A059800F025
:1073D0005DF805441498007818B15A4617999047FB
:1073E0006D1CE00324D55B462146179A059800F0F2
:1073F0004DF805441CE00498002807DBDDE9030193
:10740000884203DD0098405C179901E0179930200D
:107410005A469047049805F10105401C04900198D4
:10742000401E019004D12E205A46179990476D1C9A
:10743000BAF10001AAF1010ADDDC05E017F8010B41
:107440005A46179990476D1CB8F10001A8F1010840
:10745000F4DC5B462146179A0598ABE62D00000048
:107460002B000000200000002DE9F041044600251B
:107470001E461746880404D405E039462020B0474C
:107480006D1C641EF9D52846BDE8F0812DE9F04158
:10749000044600251E469046C80301D5302700E06B
:1074A0002027880404D505E041463846B0476D1CC6
:1074B000641EF9D52846BDE8F081000010B50446E9
:1074C00011A0FFF77DFB11A0FFF77AFB19A0FFF7D2
:1074D00077FB22A0FFF774FB2AA0FFF771FB33A014
:1074E000FFF76EFB08A0FFF76BFB2046FFF768FB7A
:1074F00004F12400024602F050F936A1104602F0D1
:10750000F5F80120608510BD0D0A00002020205FE5
:107510005F5F5F5F5F205F5F5F202020205F5F5FB6
:107520005F5F20205F5F5F5F205F5F5F5F5F5F0D7A
:107530000A00000020202F205F5F5F5F2F2F202098
:10754000207C20202F205F5F5F2F202F20205F2FA7
:107550002F205F5F5F5F2F0D0A000000202F202F7C
:10756000202020202F202F7C207C20205C5F5F208B
:107570005C20202F202F202F202F20202020200DA6
:107580000A0000002F202F5F5F5F202F205F5F5FCA
:10759000207C205F5F5F2F202F5F2F202F202F2048
:1075A0002F5F5F5F2020200D0A0000005C5F5F5F9F
:1075B0005F2F2F5F2F20207C5F7C2F5F5F5F5F2F0F
:1075C0002F5F5F5F2F205C5F5F5F5F2F20200D0AC2
:1075D000000000006C7320636D64000000214160B6
:1075E0004A1E20F8082B0954704700002DE9F0418D
:1075F00005460C4604F16C0694F88100002807D07B
:107600000027022823D084F881702846BDE8F08145
:107610002249284600F04FF8002808DB1F496C314A
:1076200051F820100029F0D020468847EDE71B2DA7
:1076300004D02946204601F09BF8E6E7022080347A
:107640006070207885552078401C2070DDE794F824
:1076500080008555A5F1610019280CD92030192822
:1076600009D97E2D07D094F88000122812D904F889
:10767000807F6770C9E709492846491D00F01BF85B
:1076800006491C3151F820102046884704F8807FB5
:107690006770BAE7401C84F88000B6E72CAD00089C
:1076A000002141604A1E028000F10802895400F85E
:1076B000801F417070470346002000E0401C0A5CB8
:1076C0009A4201D0002AF9D1095C002900D1481E54
:1076D0007047000070B505460E46002404E0285DA2
:1076E000034901F072FC641CB442F8D370BD000081
:1076F000A802002070B540F20364204601F0A6FD08
:10770000144D8021284600F0D1FE80230222102152
:10771000284600F0CFFE601E01F098FD0E4E80233B
:1077200002221021304600F0C5FE8021304600F0D4
:10773000BFFE204601F08AFDAC1423460222102130
:10774000284600F0B7FE2146284600F0B1FE002092
:1077500070BD0000000C014000080140002803D06B
:10776000012803D0002070470248704701482C30A0
:1077700070470000E001002010B5002000F009FF74
:10778000BDE81040012000F004BF10B5FFF7B2FFC4
:10779000FFF7F2FF002010BD10B5094C80212046F4
:1077A00000F0D9FE28B12046BDE81040802100F04D
:1077B0007DBE2046BDE81040802100F079BE00006B
:1077C0000008014010B5064801F070FC00F00AF80E
:1077D000034818380078BDE8104000F0B5B8000044
:1077E0005002002030B587B00124182000900023FB
:1077F00001AA5721012000F059FC104D88B101A9C0
:1078000000200A5CFF2A04D000240DA0FFF7D8F95D
:1078100003E0401CC0B21828F3D344B1287800F02C
:1078200001F9286868600C49086007B030BD18226B
:1078300001A90248FEF7E8FCF3E700003802002047
:10784000666163746F727920656570726F6D20690F
:107850006E69742E0D0A00007802002030B587B0E2
:10786000174C0168A1604168E160806820611825BB
:107870000023224657210120009500F078FCC0B17A
:107880004FF4FA7002F048FD002301AA57210120AD
:10789000009500F00BFC60B1A168039A914207D1FA
:1078A000E168049A914203D12169059A914200D07E
:1078B0000020002802D103A0FFF782F907B030BDF5
:1078C0003802002073617665206C636420636F6EFC
:1078D000666967206661696C65642E0D0A000000A8
:1078E00010B588B018220F4902A8FEF78DFC1820A9
:1078F0000090002302AA5721012000F038FC044622
:1079000044B14FF4FA7002F007FD182202A90648AC
:10791000FEF77AFC002C02D104A0FFF751F908B061
:1079200010BD0000A8AD0008380200207361766524
:10793000206C636420636F6E666967206661696CA2
:1079400065642E0D0A00000070B50446194D0F2322
:107950000F2CA86804D86043B0FBF3F080B224E099
:107960001449232CC96809D8091AA4F10F025143FC
:107970001422B1FBF2F1084480B216E00D48322C1B
:10798000006908D8401AA4F123025043B0FBF3F079
:10799000084480B209E06969A4F13202091A51432E
:1079A000CE22B1FBF2F1084480B200F0D7F86C604F
:1079B00070BD00003802002030B587B0114D6861FD
:1079C000182400232A4657210120009400F0CFFB01
:1079D00080B14FF4FA7002F09FFC002301AA5721F6
:1079E0000120009400F062FB20B16969069A91427F
:1079F00000D00020002802D103A0FFF7E1F807B073
:107A000030BD00003802002073617665206C63642D
:107A100020636F6E666967206661696C65642E0D10
:107A20000A00000030B587B0114D286018240023EB
:107A30002A4657210120009400F099FB80B14FF4B1
:107A4000FA7002F069FC002301AA5721012000947A
:107A500000F02CFB20B12968019A914200D000204F
:107A6000002802D103A0FFF7ABF807B030BD00003B
:107A70003802002073617665206C636420636F6E4A
:107A8000666967206661696C65642E0D0A000000F6
:107A900010B50FA0FFF794F8114C12A02168FFF762
:107AA0008FF815A06168FFF78BF818A0A168FFF7A1
:107AB00087F81BA0E168FFF783F81EA02169FFF794
:107AC0007FF86169BDE810401FA0FFF779B800009A
:107AD0006C636420636F6E6669673A0D0A0000008C
:107AE0003802002064656661756C74206C6576658B
:107AF0006C3A2025640D0A0063757272656E7420FD
:107B00006C6576656C3A2025640D0A00302E35636D
:107B1000642F6D2A6D202020203A2025640D0A0054
:107B20003263642F6D2A6D2020202020203A2025EA
:107B3000640D0A003563642F6D2A6D2020202020FB
:107B4000203A2025640D0A006D61782063642F6D52
:107B50002A6D2020203A2025640D0A00074B41F6AB
:107B60005E22D968491C4143B1FBF2F2521E002843
:107B700000D10022D988186802F0A8B8500200206D
:107B800070B50B4D4FF480542146284600F090FC10
:107B90001E2002F0C1FB2146284600F087FC1E2073
:107BA00002F0BAFB21462846BDE8704000F080BCD8
:107BB000000C014010B517A0FFF702F816A0FEF761
:107BC000FFFF19A0FEF7FCFF2548FEF7F9FF25A0EF
:107BD000FEF7F6FF3148FEF7F3FF3148FEF7F0FFFE
:107BE00030A0FEF7EDFF3C48FEF7EAFF2DA0FEF7C0
:107BF000E7FF3AA0FEF7E4FF43A0FEF7E1FF4CA049
:107C0000FEF7DEFF40A0FEF7DBFFBDE8104001A05D
:107C1000FEF7D6BF0D0A0000434C4920436F6D6D3F
:107C2000616E643A0D0A000076657273696F6E20AA
:107C30002020202020202020202020202020203A2A
:107C40002073686F77206669726D7761726520694D
:107C50006E666F6D6174696F6E2E0D0A0000000014
:107C600094AE00087365742D64656661756C74204C
:107C700020202020202020202020203A20736574FE
:107C80002064656661756C7420636F6E66696775E4
:107C9000726174696F6E2E0D0A00000048AE000814
:107CA0001CAF000820202020202020202020202081
:107CB00020202020202020202020203A2070776DB6
:107CC00028302D3635353335292064757479206395
:107CD00079636C650D0A0000D8AE00087365742DD9
:107CE0006C6576656C206C6576656C2020202020A4
:107CF0002020203A20736574206C6364206C6576C4
:107D0000656C2E0D0A00000020202020202020205D
:107D10002020202020202020202020202020203A49
:107D2000206C6576656C28302D323535290D0A00BA
:107D30007365742D73746172742D6C6576656C2037
:107D40006C6576656C20203A2073657420737461CD
:107D50007274206C6364206C6576656C2E0D0A006D
:107D6000FFF7BEBDFEB50D4604281AD300246E46AB
:107D7000281940782844FEF79BFA46F82400641C32
:107D8000032CF5DBDDE9000188420ADADDE90101B7
:107D9000884206DA0298B0F5803F02DA6846FFF7BB
:107DA0005DFDFEBD10B5022815D348780844FEF7E6
:107DB0007FFA0446601EFF2808D2E0B2FFF7C4FD38
:107DC0002146BDE8104004A0FEF7FABEBDE8104011
:107DD00007A0FEF7F5BE10BD736574206C636420C8
:107DE0006C6576656C20746F2025642E0D0A00008A
:107DF000736574206C6576656C206661696C65647A
:107E00002C2076616C7565206265796F6E642072D6
:107E1000616E67652E0D0A0010B5022817D34878E9
:107E20000844FEF745FA0446601E42F20F7188428C
:107E300008D22046FFF7C0FD2146BDE8104004A04F
:107E4000FEF7BEBEBDE8104008A0FEF7B9BE10BDEB
:107E5000736574206C6364206D6178206C65766551
:107E60006C20746F2025642E0D0A00007365742049
:107E70006D6178206C6576656C206661696C6564FF
:107E80002C2076616C7565206265796F6E64207256
:107E9000616E67652E0D0A0010B5022808D3487878
:107EA0000844FEF705FA08B1012801D1014908701C
:107EB00010BD00000000002010B5022817D348783C
:107EC0000844FEF7F5F90446601E4FF6FF7188423C
:107ED00008D2A0B2FFF742FE2146BDE8104004A040
:107EE000FEF76EBEBDE8104007A0FEF769BE10BDEC
:107EF000736574206C63642070776D20746F202527
:107F0000642E0D0A00000000736574206C63642009
:107F100070776D206661696C65642C2076616C7584
:107F200065206265796F6E642072616E67652E0DE3
:107F30000A00000010B5022815D348780844FEF75F
:107F4000B7F90446601EFF2808D2E0B2FFF76AFDC9
:107F50002146BDE8104004A0FEF732BEBDE8104047
:107F600009A0FEF72DBE10BD736574206C636420FC
:107F70007374617274206C6576656C20746F202553
:107F8000642E0D0A00000000736574206C63642089
:107F90007374617274206C6576656C206661696CBF
:107FA00065642C2076616C7565206265796F6E64FE
:107FB0002072616E67652E0D0A000000FFF768BD34
:107FC000FFF7DEBD7047000010B509A0FEF7F8FD11
:107FD00008A30BA20DA111A0FEF7F2FD13A215A19B
:107FE00019A0FEF7EDFDBDE8104001A0FEF7E8BDC9
:107FF0000D0A000031303A35343A33332E3238002E
:10800000323032332F30342F32380000436F6D70EE
:108010006C69652054696D6500000000252D3138BC
:10802000733A2025732025730D0A0000312E302E5F
:10803000340000004669726D776172652056657282
:1080400073696F6E00000000252D3138733A2025CA
:10805000730D0A0010B5084801F022F9032200212F
:10806000012002F0D1FA044920398866BDE81040A9
:108070006021024801F046BF881C002080020020D9
:1080800010B5084801F00CF903220021012002F08C
:10809000BBFA04498864BDE81040A021024801F001
:1080A00031BF00001C1C0020BC0100202DE9F0475E
:1080B0008046089E0C4615461F4660064FEA10692A
:1080C000404600F0E8FA4946404600F0BDFA404616
:1080D00000F011FB28B1404600F0F9FA0020BDE89D
:1080E000F087390A404600F0AFFA404600F003FB43
:1080F00020B1404600F0EBFA0020F0E7F9B240462C
:1081000000F0A2FA404600F0F6FA20B1404600F036
:10811000DEFA0020E3E7404600F0BDFA012000EB64
:108120004400C1B2404600F08FFA404600F0E3FA46
:1081300020B1404600F0CBFA0020D0E70024771EA3
:108140000EE0404600F05DFA2855BC4203D04046A0
:1081500000F008FA02E0404600F03EFA641CA4B2C7
:10816000B442EED3404600F0B2FA0120B7E72DE961
:10817000F0478146089F90461D4648064FEA106A20
:1081800005F07F060024484600F085FA514648462F
:1081900000F05AFA484600F0AEFA28B1484600F01E
:1081A00096FA0020BDE8F087290A484600F04CFA0C
:1081B000484600F0A0FA20B1484600F088FA0020B6
:1081C000F0E7E9B2484600F03FFA484600F093FA7B
:1081D00020B1484600F07BFA0020E3E776B3C6F111
:1081E0008004BC4200DB3C4600250FE018F8051077
:1081F000484600F029FA484600F07DFA20B148468A
:1082000000F065FA0020CDE76D1CADB2A542EDDBB4
:108210001AE03E1B802E00DB8026002511E060194D
:1082200018F80010484600F00FFA484600F063FACC
:1082300028B1484600F04BFA0020B3E704E06D1C7B
:10824000ADB2B542EBDB3444BC42E2DB484600F061
:108250003EFA0120A6E700B5034600F009F85B1ED0
:10826000012801D1002BF8D1012800D1042000BD44
:1082700000200849CA68D20701D001207047CA68A7
:10828000D20601D503207047C9684907FBD50220F3
:10829000704700000020024000B5034600F00AF8D5
:1082A0005B1E012801D1002BF8D1012800D1042048
:1082B00000BD000000200849CA6CD20701D001208F
:1082C0007047CA6CD20601D503207047C96C4907B4
:1082D000FBD502207047000000200240F0B50446A4
:1082E0000D462048204E4FF470270088B0F5007FDF
:1082F00026D21E48844211D23846FFF7ACFF002830
:108300000BD1306940F00100306125803846FFF71D
:10831000A2FF316921F001013161F0BD3846FFF75C
:10832000BBFF0028F9D1306D40F001003065258099
:108330003846FFF7B1FF316D21F001013165F0BD25
:108340003846FFF788FF0028F9D1306940F0010076
:10835000306125803846FFF77EFF316921F0010149
:108360003161F0BDE0F7FF1F00200240FFFF07086A
:1083700009480169094A0B06094901D54260416073
:10838000084B1B88B3F5007F04D9036D1B0601D58C
:1083900042644164704700000020024023016745A9
:1083A000AB89EFCDE0F7FF1F70B50546064C2946B7
:1083B000206801F041FE0721206801F08EFE0028B0
:1083C000F9D0284670BD0000BC01002030B5114B2B
:1083D0001A46114D45F255542C60EC6804F0010426
:1083E000521E01D0002CF8D10CB1002030BD6960C4
:1083F000E96801F002015B1E01D00029F8D109B142
:10840000002030BDC0F30B00A8604AF6AA20286007
:10841000012030BDFFFF0F000030004002494AF646
:10842000AA200860704700000030004002494CF666
:10843000CC4008607047000000300040024945F21F
:108440005550086070470000003000400EA0FEF755
:10845000B7FB124800684088A0F57F41FF3905D17D
:10846000FFF786FFFF210E48FFF738FFBFF34F8F5E
:108470000C4801680C4A01F4E06111430160BFF34C
:108480004F8F00BFFDE70000676F746F5F6F74610F
:108490005F757064617465200D0A00000C00002097
:1084A000025C00080CED00E00400FA054161704731
:1084B000016170472DE9F04301F00F04CD0600D5AE
:1084C000144300224FF00F0C012707FA02F51D405C
:1084D00014D0D0F8008096000CFA06F928EA0908B2
:1084E00004FA06F949EA0809282902D0482902D0E5
:1084F00002E0456100E00561C0F80090521C92B2B4
:10850000082AE2D3082207FA02F51D4016D0D0F857
:108510000480A2F10806B6000CFA06F928EA090858
:1085200004FA06F949EA0809282902D0482902D0A4
:1085300002E0456100E00561C0F80490521C92B26F
:10854000102AE0D3BDE8F0838068084201D0012002
:10855000704700207047C068084201D00120704772
:108560000020704710B5FFF7F9F801460A6A886ADB
:10857000506100F02BF80A698869106100F026F854
:108580000A698869506100F021F8886A096A0861FF
:1085900010BD70B505462846FFF7E0F80446E089AF
:1085A00000F054FEA08B00F051FE03221421A369B9
:1085B0002069FFF77FFF03221421A36A206AFFF7D7
:1085C00079FF2846BDE8704000F081B80020401CCB
:1085D000C0B27828FBD3704710B5FFF7BFF801464B
:1085E0000A6A886A1061FFF7F1FF0A6988691061F9
:1085F000FFF7ECFF886909694861BDE81040FFF7A3
:10860000E5BF70B5FFF7AAF8044600250026FFF77E
:10861000DDFF6806050E2169A0690861FFF7D6FF36
:10862000FFF7D4FFA16A206AFFF78EFF08B16D1C27
:10863000EDB22169A0694861FFF7C8FF761CF6B268
:10864000082EE4D3284670BD10B50C46FFF786F817
:1086500002460023200603D5116A906A086102E0F1
:10866000116A906A4861FFF7B1FF1169906908616A
:10867000FFF7ACFF116990694861072B02D1116ABD
:10868000906A08616006040EFFF7A0FF5B1CDBB276
:10869000082BDFD310BD10B5FFF760F801460A6A5A
:1086A000886A10610A6988691061FFF78FFFFFF718
:1086B0008DFF0A6A886A5061FFF788FFFFF786FF1F
:1086C000886909694861BDE81040FFF77FBF10B5B0
:1086D000FFF744F801460A6A886A50610A698869A6
:1086E0001061FFF773FFFFF771FFFFF76FFF886AF5
:1086F000096A086110BD10B5FFF730F80446216A19
:10870000A06A0861FFF762FF2169A0690861FFF7AD
:108710005DFFA16A206AFFF717FF08B1012100E0A1
:1087200000212269A0695061FFF750FF084610BD83
:1087300010B5FFF783FE042140F6FF70FFF746FEF9
:10874000BDE81040FFF772BE10B54FF4C0414FF0C6
:10875000006000F035FA4FF4407000F027FAFFF7A0
:1087600014F8FFF7E5FF01F011F9012010BD00003A
:1087700070B50D4642680021B0F9003000F10804E0
:10878000622A23D2934204D307E08318DE791E7253
:10879000521EB0F900309342F7D30288521C12B235
:1087A000028043685B1C4360155542681155B0F95F
:1087B00000104068491C814202D208A0FEF700FA6E
:1087C0002846BDE87040074900F0FFBB61224260C7
:1087D000612B01D360230380115570BD1B5B3140B9
:1087E00000000000A802002070B50546002406E045
:1087F0002819054990F86C0000F0E7FB641C95F817
:108800008000A042F4D870BDA802002090F86E103D
:10881000332916D1B0F90010491C03E04218537AED
:108820001372491C42688A42F8D84168B0F9003096
:108830000AB29A4205DD491E4160042101A0FEF7FB
:1088400049BF70471B5B31500000000010B5B0F904
:108850000010002904DA10BD4218537A1372491C23
:1088600042688A42F8D80188491E01804168491E41
:1088700041600449082000F0A8FBBDE8104002A0B8
:10888000FEF79EB9A80200201B5B315000000000DB
:1088900070B50446144D688D002823D0B4F900103B
:1088A00012A0491CFEF78CF912A0FEF789F904F119
:1088B0000802698D164605F1240000F0D7FE304607
:1088C000FDF7D8FC01466060481E20803046FEF768
:1088D00001FF688D401C80B26885298D884200D9CF
:1088E0000120688570BD00007C0000201B5B2564B2
:1088F000440000001B5B4B0010B54FF0FF310180BE
:10890000002141600648018D418506490D2000F097
:108910005CFBBDE8104003490A2000F056BB000094
:108920007C000020A8020020B0F90010002904DB20
:10893000491E018001A0FEF743B970471B5B31441B
:10894000000000004FF0FF3101800021416003482A
:10895000018D418502490A2000F037BB7C000020D0
:10896000A80200204268B0F90010521E914204DAB9
:10897000491C018001A0FEF723B970471B5B3143FE
:108980000000000070B5044604F108010E462048BE
:1089900000F048FE0546002D38D06068C0B1B4F93B
:1089A00000101CA0491CFEF70BF91CA0FEF708F9EB
:1089B0002846FDF75FFC6060401E20802946304657
:1089C000FDF76DFC30466168BDE87040FEF782BE81
:1089D00013A0FEF7F5F800240D4D142609E000EB76
:1089E000810110A0FEF7ECF80DA0FEF7E9F8641C79
:1089F000E4B2C4EBC401286A06EB81028258002A63
:108A0000EDD1BDE870400248FEF7DAB870BD000055
:108A10007C0000201B5B2564440000001B5B4B00B6
:108A20000D0A00002573000070B50446134D688DD3
:108A3000002821D0B4F9001011A0491CFEF7C0F89D
:108A400011A0FEF7BDF804F10802698D164605F184
:108A5000240000F00BFE3046FDF70CFC0146606080
:108A6000481E20803046FEF735FE688D401E80B2DD
:108A7000688500B9288D688570BD00007C000020E5
:108A80001B5B2564440000001B5B4B00F0B588B005
:108A9000002300266D46EE545B1C202BFBDB0127D8
:108AA00011F8013B05EBD30403F0070294F800C072
:108AB00007FA02F24CEA020C84F800C0002BEFD156
:108AC000154B08B1024602E01A6800E0521C10780B
:108AD00005EBD00100F00704097807FA04F42142FD
:108AE00001D00028F2D110460CE005EBD10401F0D2
:108AF0000701247807FA01F10C4202D002F8016B59
:108B000003E0521C11780029EFD11A60904200D185
:108B1000002008B0F0BD0000B0010020F0B506460E
:108B20000F46002300242048006800F4E0654FF45D
:108B3000A06085422FD006DCB5F5407F31D0B5F579
:108B4000806F06D12AE0B5F5C06F21D0B5F5E06F92
:108B50001CD000F02BF802230224C3F1040087404C
:108B6000C4F104010F20C84010403843000106F151
:108B7000E02181F8000406F01F01012088407109FE
:108B8000890001F1E021C1F80001F0BD0424E4E70F
:108B900001230324E1E702230224DEE70323012467
:108BA000DBE70423D9E700000CED00E002490843AD
:108BB00002490860704700000000FA050CED00E073
:108BC000024A1140014302480160704780FFFF1FC5
:108BD00008ED00E02DE9F04104460F46174EF56818
:108BE0003068001D01F0DAFA38B9306890F82C10BE
:108BF00001208840316981433161601C07D137B160
:108C00003168BDE8F041091D0D4801F000BB2C445E
:108C100030684460AC4206D23168F06B091DBDE893
:108C2000F04101F0DCBA3168B06B091D01F0D7FAF0
:108C3000B06A844200D2B462BDE8F0811000002026
:108C40008403002070B5044601F0EEFA1C4DA868BC
:108C5000401CA860286810B1686938B10CE02C602D
:108C6000A868012808D100F0F7F805E02868E16A53
:108C7000C06A884200D82C60686A401C6862E06A5A
:108C800001212A698140114329610E4900EB8000CE
:108C900001EB8000211D01F0BAFA01F0DDFA6869EC
:108CA00000280CD02868E16AC06A884207D20649C9
:108CB0004FF080500860BFF34F8FBFF36F8F70BDD0
:108CC00010000020D002002004ED00E070B50C4D33
:108CD0000C4E11E001F0A8FAF068C468201D01F004
:108CE0005DFAA868401EA8606868401E686001F0D0
:108CF000B3FA204600F008F868680028EAD170BD91
:108D0000100000207003002010B50446206B01F015
:108D1000B1FA2046BDE8104001F0ACBA416A002922
:108D200004D0006B0068C0F1050070470020704758
:108D30004FF4C0510F48420706D0C01D20F0070075
:108D40000C49411AC1F5C0510B4A10600023536011
:108D50000144083921F00701183A11604B600B609B
:108D60000B1A436001604068906050604FF0004013
:108D7000506170479803002068000020074E4FF0B4
:108D80008054074DFFF7A2FF30680128FAD92C6004
:108D9000BFF34F8FBFF36F8FF4E70000D0020020C6
:108DA00004ED00E003460098002905D00260C3638B
:108DB0000164012101F04CBC0060F8E72DE9F05F8F
:108DC0008246DDE90A590C9C0E4617469B46B900BF
:108DD000A522206BFDF72AFA206B7F1E00EB87008F
:108DE00020F00707780700D0FEE74FF0000866B1D3
:108DF00000202218315C82F83410315C11B1401C23
:108E00000A28F6D384F83D8001E084F83480052DEB
:108E100000D30425E5622564C4F84480201D01F0D8
:108E2000DBF904F1180001F0D7F92461C5F1050060
:108E3000A0616462C4F8488084F84C805A46514668
:108E4000384600F07FF92060B9F1000F01D0C9F871
:108E50000040BDE8F09F000070B50024124D04EB07
:108E6000840005EB800001F0ACF9641C052CF6D3FE
:108E70000D48643001F0A5F90B48783001F0A1F9F4
:108E800009488C3001F09DF90748A03001F099F9AC
:108E90000548B43001F095F9034904486431816311
:108EA0001431C16370BD0000D0020020100000200A
:108EB00030B5134900E011460A688242FBD34B6883
:108EC0005C18844203D140681844486008460D6825
:108ED00044682318AB420DD1094B183B1B689A42DA
:108EE00006D05268224442600A681268026002E0BA
:108EF000036000E00260814200D0086030BD0000E5
:108F00006800002010B5044601F08EF9A06B20B176
:108F1000002401F0A1F9204610BD0124F9E700006A
:108F20000648816B0968002904D0816BC96809680B
:108F3000816270474FF0FF3181627047100000205E
:108F400006484068401C00D0FEE7502080F311889E
:108F5000BFF34F8FBFF36F8FFEE70000700000205C
:108F60002DE9F041044601F05FF994F9455004F110
:108F7000240609E0606A48B1304601F08BFD08B173
:108F800001F044FA6D1E6DB2002DF3DC4FF0FF3698
:108F900084F8456001F060F901F046F994F9445015
:108FA00004F1100709E0206948B1384601F072FD6C
:108FB00008B101F02BFA6D1E6DB2002DF3DC84F8C0
:108FC0004460BDE8F04101F047B9FFF7EDB900009A
:108FD0002DE9F0410446002601F0A0FA2C4F386834
:108FE00008B9FFF7A5FE7869044248D194B104F1AD
:108FF0000805A5420ED968070DD005F00700C0F19D
:1090000008002844A84203D90546680703D0FEE7B4
:10901000002500E0002595B3786885422FD81C49CB
:1090200018310846046801E0214604466068A842F9
:1090300002D220680028F7D1386884421FD00E6819
:109040000836206808606068411B102907D960193C
:10905000420700D0FEE741606560FFF729FF6168C5
:109060007868401A7860BA68904200D2B86078692F
:109070000143616000202060F868401CF86001F046
:109080003FFD700700D0FEE73046BDE8F0810000EC
:109090005000002004490868002803D00868426C8A
:1090A000521C4264086870471000002030B587B039
:1090B0000446E08A00F0CAF84FF4C06000F0C6F839
:1090C00003221821236AA069FFF7F4F9A08800F0B1
:1090D000BDF8206800F034FE2089ADF800000025BE
:1090E000ADF80250ADF80450E0680290ADF80C50B5
:1090F0008DF80E506946206800F096FE207DC0B1C4
:10910000ADF814500120ADF81000E18804AA2068E1
:1091100000F0C6FCE1882269206800F0D7FDE188F4
:109120006022206800F0A8FDE1880022206800F09D
:10913000DDFD206800F0AEFC206800F06FFE07B097
:1091400030BD000020384FF08073C36121F0010171
:1091500081610249416140F820297047418F000830
:1091600070B588B00246002031A104AE91E8380005
:10917000C96838C607912FA10AC9CDE902132DA1EC
:109180000AC9CDE900132E4C6168C1F381012D4B52
:10919000002923D0012923D0022923D0194663684E
:1091A000C3F3031304ADEB5C21FA03F36568C5F365
:1091B000022502AE755D23FA05F56468C4F3C22486
:1091C0001DF8044023FA04F45AB3012A2BD0022AD2
:1091D0002BD0032A00D1204608B070BD1946DEE727
:1091E0001946DCE7616801F48031174DB1F5803F25
:1091F0000CD02B466168C1F3834165682D0101D510
:1092000041F010010F2909D2891C08E0616801F4BE
:109210000031B1F5003FEDD12B46EBE7491C594336
:10922000BDE70846D8E71846D6E72846D4E7000049
:109230000000000000000000010203040607080906
:109240000010024000127A0000093D00054901EBC0
:1092500090110A6800F01F030120984002430A6041
:109260007047000000100240054901EB90110A68A8
:1092700000F01F030120984082430A6070470000FD
:1092800000100240054901EB90110A6800F01F032D
:109290000120984002430A6070470000001002401D
:1092A00010B5044648212046FCF7C7FF4021E18065
:1092B00010BD8088002801D0002070470120704731
:1092C000F0B58388002B0AD0934200D21A4672B6BA
:1092D00000230488C688A518B54209D222E00020E0
:1092E000F0BD05192D7ACD545B1C9BB2641CA4B251
:1092F000C588A542F5D80024D51A05E006191F191E
:10930000367ACE55641CA4B2A542F7DC8188891A4E
:109310008180058010E005192D7ACD545B1C9BB22D
:10932000641CA4B205881544A542F4D88188891A22
:10933000818001881144018062B61046F0BDF0B50D
:109340008388C588AB4201D30020F0BD9C18AC4295
:1093500001D9EA1A92B200234488A618AE4207D275
:1093600024E00619CD5C35725B1C9BB2641CA4B270
:10937000C588A542F5D80024D51A05E01E1907199D
:109380008E5D3E72641CA4B2A542F7DC8188114454
:1093900081804188C3881144C91A418010E00619B0
:1093A000CD5C35725B1C9BB2641CA4B2458815442D
:1093B000A542F4D8818811448180418811444180BC
:1093C0001046F0BD10B51E4C0022A179002909D02D
:1093D00004F10A0301290CD0022918D0032925D051
:1093E000A27110BDA52801D0A27110BD0120A071ED
:1093F00010BD5A2801D0A27110BD0220A071228197
:1094000016211846FCF719FF0520A08110BD0C4954
:1094100022890E3150542089401C80B22081A189BC
:109420008842F3D3A079401CA07110BDE083A271E3
:1094300021680029F9D0BDE810401846084700000F
:10944000B00200200021322802DA00EB800109E09E
:10945000FF2807DC323849F646314843CE2190FBDD
:10946000F1F1FA3188B2FEF779BB30B50446104607
:109470000023814201D2002030BD0221421E03E0C0
:10948000655C2B449BB2491C9142F9DB211801F821
:10949000013C30BDFEB504460020009001900290D2
:1094A00000255A4FA5208DF800005A208DF80100A4
:1094B0002079574E86282FD006DC702851D080287E
:1094C00008D084281AD11AE00421882831D08A28AB
:1094D00014D13AE06079FFF7B5FF6079FEF734FA0E
:1094E0006079706081208DF8020060798DF803004A
:1094F00008220C216846FFF7B8FF054672E00020FD
:10950000FFF7A0FF85208DF8020008220C21684695
:10951000FFF7ABFF054665E07068FFF793FF872014
:109520008DF8020008220C216846FFF79EFF0546D1
:1095300058E089208DF802008DF8031008220C21D4
:109540006846FFF792FF05464CE08B208DF802003D
:109550008DF8031008220C216846FFF786FF0546A8
:1095600040E0607920B1012818D0022819D039E0F4
:109570005A2000F013FDA52000F010FDFF26002466
:10958000385D00F00BFD385D3044C6B2641CE4B2B7
:10959000202CF5D3304600F001FD23E0FEF756FF06
:1095A00020E05A2000F0FAFCA52000F0F7FCFF268E
:1095B0000024184F38682044C07A00F0EFFC386867
:1095C0002044C07A3044C6B2641CE4B2142CF1D3F7
:1095D000FDF7E8F900F0E2FCFDF7E4F93044C0B231
:1095E00000F0DCFC00240A4E6F460C360AE0395DC0
:1095F000306800F021FD0721306800F06EFD002882
:10960000F9D0641CAC42F2DBFEBD0000005E000835
:109610007402002004000020014908607047000027
:10962000B00200202DE9F047074689464FF00008B8
:10963000FF25002410E000EB86004946FCF708FEF9
:1096400040B1396A01EB8601401AA84202D2C5B284
:10965000884645B1641CE4B2386AC4EBC40610F80D
:1096600026100029E7D14046BDE8F087F0B5838891
:109670008B421FD30388491E194489B2032900D99C
:10968000091F8BB2C118897B5B1C9BB2032B00D9CD
:10969000002303449C7B0025A1420CD20B4605E02D
:1096A000C6185F1AB67CD6555B1C9BB2A342F7D393
:1096B000581A1554F0BD0B4605E0C6185F1AB67C63
:1096C000D6555B1C9BB2FE2BF7D3002307E0C618D0
:1096D0005F1A1744B67C87F8FE605B1C9BB2A342FE
:1096E000F5D3581A104480F8FE50F0BD2DE9F04132
:1096F00004460E463046FCF7BDFD85B2FD2D4AD826
:1097000004F10E0318E02088401C80B2208003285A
:1097100000D900202080A288521EA2802289C75C26
:10972000BA4203D8BA1A891AA18103E0BA1A891A6F
:10973000FE39A181C05C2081A189C1F1FD00A84250
:10974000E1DBA0880328DED06188A07AC854608855
:10975000401C80B26080032800D900206080A0886F
:10976000401CA080002004F112070FE06289315CE8
:10977000D1556189491C8AB26281FD2A00D9002233
:109780006281A189491CA181401C80B2A842EDD30D
:109790006188A07AC854BDE8F08100210180418031
:1097A000818001814181818170472DE9F047044624
:1097B0000E4625880020A188002934D03046FCF7C9
:1097C00059FD87B20023B4F804C030E06019827BF1
:1097D0006D1CADB2032D00D900256019807B82423B
:1097E00002D8801A80B203E0C2F1FE01084480B2C0
:1097F000B8421AD1581C81B2002010E004EB0208D4
:1098000016F8009098F81280C84501D0002108E0B1
:10981000521C92B2FD2A00D90022401C80B2B842EC
:10982000ECD311B10846BDE8F0875B1C9BB29C45A8
:10983000CCD80020F7E700002DE9F0479CB0804627
:109840000C4600254FF00A0A08F12400214606467E
:10985000FFF7ABFF28B9207818B121463046FFF753
:1098600045FF2046FCF706FD642809D928A0FDF72E
:10987000A7F941462DA0FDF7A3F91CB0BDE8F0877C
:109880002BA12046FFF702F981462146404600F011
:109890005DF8064630000ED06F468DF800A00DF141
:1098A0000A002146FCF7FBFC2046FCF7E3FC0B30EA
:1098B000C4B201251EE0FCF7A3FC00682178405CDF
:1098C00010F0980F1BD049461AA0FDF779F916E061
:1098D00017A10020FFF7DAF881467C553819494670
:1098E000FCF7DDFC4846FCF7C5FC2044401CC4B234
:1098F0006D1CEDB2B9F1000FEAD16D1EEDB216B1DB
:1099000069462846B0474046FDF75AF9B5E70000DA
:109910007468697320636F6D6D616E642069732074
:10992000746F6F206C6F6E672E0D0A002573000038
:10993000200000006E6F20636F6D6D616E64206E9D
:10994000616D65643A2025730D0A00002DE9F04130
:1099500005460F460024142606E000EB8201384637
:10996000FCF78FFC58B1641CC4EBC402286A06EBF8
:10997000820141580029F0D10020BDE8F081C4EBFC
:10998000C401286A06EB81014058F6E71CB50024A3
:109990000225CDE900542346402210A1104800F0D2
:1099A000A1FF0420CDE90004002380220DA10F486F
:1099B00000F098FF0320CDE90004002380220CA1D1
:1099C0000D4800F08FFFCDE90054002380220BA149
:1099D0000C4800F087FF00F075FDFEE76170700035
:1099E00089690008636F6D6D00000000B5690008AB
:1099F0006465627567000000096A00086C63645062
:109A0000776D0000796A000800211E48026842F460
:109A1000803202604FF6FF73491C026802F4003284
:109A20000AB99942F8D10168890300D4FEE7416878
:109A3000416041684160416841F480614160416832
:109A400021F440314160416841F440314160416856
:109A50000D4A1140416041680C4A11434160016860
:109A600041F08071016001688901FCD5416821F0F5
:109A700003014160416841F002014160416809070A
:109A8000FCD5704700100240FFFFC3F70000280814
:109A9000FFF7BABF016841F0800101607047000024
:109AA00030B5734B734C002929D0012960D00229AD
:109AB0007ED0032922D1016A21F480510162C1695B
:109AC00021F44071C161016A158841EA05310162E2
:109AD000016A21F400510162016A958841EA053169
:109AE0000162984201D0A04208D1416821F480412E
:109AF00041604168128941EA8211416030BD016ACA
:109B000021F001010162816921F003018161016A93
:109B1000158829430162016A21F002010162016A8C
:109B2000958829430162984201D0A042E6D1016A9A
:109B300021F004010162016A538819430162016A3C
:109B400021F008010162016AD3881943016241686A
:109B500021F4807141604168138919434160416873
:109B600021F400714160416852891143416030BD68
:109B7000016A21F010010162816921F44071816163
:109B8000016A158841EA05110162016A21F020018C
:109B90000162016A958841EA05110162984201D08B
:109BA000A042E4D1016A21F040010162016A00E0B3
:109BB0001FE0538841EA03110162016A21F080012C
:109BC0000162016AD38841EA03110162416821F40C
:109BD000806141604168138941EA830141604168C5
:109BE00021F4006141604168528941EA820141608B
:109BF00030BD016A21F480710162C16921F0030165
:109C0000C161016A158841EA05210162016A21F4F6
:109C100000710162016A958841EA0521016298425A
:109C200001D0A042E4D1016A21F480610162016A9D
:109C3000538841EA03210162016A21F40061016253
:109C4000016AD38841EA03210162416821F480510D
:109C500041604168138941EA03114160416821F480
:109C6000005141604168528941EA0211416030BDB2
:109C7000002C01400034014000290ED0012914D0ED
:109C800002291BD0032907D1C16921F4E041C16138
:109C9000C16941EA0221C1617047816921F0700107
:109CA00081618169114381617047816921F4E041DB
:109CB0008161816941EA022181617047C16921F0B6
:109CC0007001C161C1691143C1617047002907D0AA
:109CD000012907D0022907D0032900D10264704767
:109CE0004263704782637047C263704700290ED099
:109CF000012914D002291BD0032907D1C16921F4FD
:109D00000061C161C16941EA0221C1617047816995
:109D100021F0080181618169114381617047816986
:109D200021F400618161816941EA0221816170470A
:109D3000C16921F00801C161C1691143C161704766
:109D400010B5344A811A141590424DD014DCB0F18C
:109D5000804F2DD03049401832D0A0423AD0B0F5D3
:109D6000006F55D140F203442046FFF78BFA20469E
:109D7000BDE81040FFF778BAA1423FD0B1F58E3F61
:109D80000CD0B1F5923F43D140F20D342046FFF79D
:109D900079FA2046BDE81040FFF766BA40F20B346E
:109DA0002046FFF76FFA2046BDE81040FFF75CBA87
:109DB0002046FFF767FA2046BDE81040FFF754BA87
:109DC00040F201442046FFF75DFA2046BDE810400E
:109DD000FFF74ABA40F202442046FFF753FA204602
:109DE000BDE81040FFF740BA40F204442046FFF7B8
:109DF00049FA2046BDE81040FFF736BA40F2054464
:109E00002046FFF73FFA2046BDE81040FFF72CBA86
:109E100010BD00000010004000FCFFBF016841F0D1
:109E2000010101607047000030B50A888262284A4B
:109E3000284B90421FD0B0F1804F1CD0264CA0423E
:109E400019D0264CA04216D0254CA04213D09842DF
:109E500011D0244CA0420ED0234CA0420BD0234C56
:109E6000A04208D0224CA04205D0224CA04202D0F1
:109E7000214CA0420FD1046824F0700404600468EF
:109E80008D7805F060052C43046004680D7905F0B9
:109E900010052C4304608C68C462184CA0420CD09E
:109EA000174CA04209D0046824F44074046004688C
:109EB0008D8905F440752C430460904201D098428E
:109EC00001D1897B0163416941F00101416130BDEC
:109ED000002C014000340140000400400008004014
:109EE000000C0040004C0140005001400054014073
:109EF00000180040001C00400020004000100040FE
:109F00000014004070B504460D46A089FFF79EF985
:109F1000208BFFF79BF9A088FFF798F9D4E9040399
:109F200003221821FEF7C6FAD4E90703032204210D
:109F3000FEF7C0FA206800F083F84FF4E1312068A2
:109F400000F03EF80021206800F020F90021206890
:109F500000F00EF90021206800F0FCF800212068D4
:109F600000F0CEF80021206800F0C4F80421206839
:109F700000F0F8F80821206800F002F9206800F0ED
:109F8000A7F805F00F022909A079FEF7C7FD40F2F6
:109F90000531206800F0BAF8002070BD70B50546A4
:109FA000064C0721206800F098F80028F9D02946CF
:109FB0002068BDE8704000F03FB80000800200203B
:109FC00070B504460D460020174BE21A1E159C4240
:109FD00016D008DC154962180ED0B24217D1022003
:109FE000FFF7BEF813E0B2420ED0B2F56C4F0ED1BF
:109FF0000320FFF7B5F80AE00220FFF7B1F806E00A
:10A000000220FFF7ADF802E00220FFF7A9F800EB0D
:10A010005500B0FBF5F04FF6F071014000F00F0273
:10A020001143A16070BD0000004C004000BCFFBFA8
:10A030004068C0F308007047C1F3080141607047F1
:10A0400010B5214A811A1315904228D00EDC1F4901
:10A0500040181AD0984236D140F212442046FFF7F9
:10A0600011F92046BDE81040FFF7FEB8994220D014
:10A07000B1F56C4F27D140F20E342046FFF702F9BC
:10A080002046BDE81040FFF7EFB840F211442046EB
:10A09000FFF7F8F82046BDE81040FFF7E5B840F2BA
:10A0A00013442046FFF7EEF82046BDE81040FFF7C6
:10A0B000DBB840F214442046FFF7E4F82046BDE840
:10A0C0001040FFF7D1B810BD004C004000BCFFBFEE
:10A0D000C16841F40051C160704700EB9110006805
:10A0E00001F01F0201219140084201D00120704778
:10A0F00000207047426922F400720A4342617047AF
:10A10000426922F480720A434261704710B5C1F37C
:10A110008912835801F01F040121A1400B43835091
:10A1200010BD30B5C1F38912825801F01F0401251A
:10A1300005FA04F31A4000EB91500068C1F30441A2
:10A1400005FA01F31840002802D00AB1012030BD01
:10A15000002030BDC26822F4C062C260C2680A43F7
:10A16000C2607047C26822F004020A43C2607047AE
:10A17000026922F44052026102690A430261704797
:10A18000C26822F008020A43C2607047C26822F423
:10A190008052C260C2680A43C26070470169D0E958
:10A1A00001329A60D0E901235A604A68824201D1A3
:10A1B00082684A60002202610868401E08600868E0
:10A1C000704700F1080141604FF0FF328260C160CA
:10A1D000016100210160704700210161704730B5C5
:10A1E0000C68621C02D000F1080202E0026904E07F
:10A1F0001A4653681D68A542FAD953684B609960A6
:10A200008A60516008610168491C016030BD426884
:10A210004A6093688B609368596091600861016837
:10A22000491C016070470000502080F31188BFF383
:10A230004F8FBFF36F8F06494868401C4860012864
:10A2400005D10448006810F0FF0F00D0FEE770470A
:10A250007000002004ED00E005494868002806D0A1
:10A26000401E4860002801D180F311887047FEE746
:10A270007000002070B500281CD0083804460E4D30
:10A2800060686969084200D1FEE7226802B1FEE712
:10A290008843606000F042F960686968084468605B
:10A2A0002046FEF705FE2869401C2861BDE8704085
:10A2B00000F026BC70BD0000500000204FF0E020F0
:10A2C00000210161816105494FF47A720968B1FB8F
:10A2D000F2F1491E4161072101617047A40200208B
:10A2E00010B5FBF777FF0A49102807D300F1E020EB
:10A2F00090F8F0030A78904200D2FEE70548006823
:10A30000896800F4E060884200D9FEE710BD0000D3
:10A31000700000200CED00E010B502460020002A7D
:10A320000BD00B48406B00B1FEE700F0F7F80021BE
:10A330001046FEF74FFC00F0E3FB002807D105496B
:10A340004FF080500860BFF34F8FBFF36F8F10BD89
:10A350001000002004ED00E070B50446FFF764FF34
:10A36000234D04B92C68201DFFF718FF58B9E06A87
:10A37000204A00EB800152F8211021B901218140CF
:10A38000286988432861A06A18B104F11800FFF712
:10A3900005FF686A401C68622868844208D1154835
:10A3A000211DA030FFF733FF6868401C686004E09F
:10A3B000A868401EA860FEF7B3FDFFF74DFF2868B0
:10A3C000844202D02046FEF79FFC686900280DD029
:10A3D000286884420AD1686B00B1FEE706494FF055
:10A3E00080500860BFF34F8FBFF36F8F70BD0000C8
:10A3F00010000020D002002004ED00E002490A6AAB
:10A400000260C968416070471000002001490120C6
:10A41000C86170471000002010B50C4600280AD013
:10A42000054909681831FFF7DAFE2046BDE81040FB
:10A430000121FEF7CFBBFEE71000002070B50B46F0
:10A440000446002839D0626C6AB1216C994200D26E
:10A450001946E06A884230D0012A2ED1174D2A6869
:10A46000944201D1FEE7FEE7E162A269002A02DB25
:10A47000C1F10501A161124E00EB8000616906EB9C
:10A480008000814219D1201DFFF788FE012130B9DB
:10A4900094F82C002A6901FA00F082432A61E06AEC
:10A4A0002A6981401143296100EB800006EB80009E
:10A4B000211DBDE87040FFF7AABE70BD100000204E
:10A4C000D00200207CB511480025CDE900502B4674
:10A4D00040220FA1104800F005FA0C4C2C3C01283A
:10A4E00002D0401C11D00EE0502080F31188BFF341
:10A4F0004F8FBFF36F8F4FF0FF30A062012060617C
:10A50000E56000F03BF8206B7CBDFEE73C000020DE
:10A5100049444C45000000007D8D00080248416B15
:10A52000491C41637047000010000020114A506B25
:10A53000002802D00120D06170470020D06110694E
:10A54000B0FA80F0C0F11F000B4900EB800051F819
:10A55000203073B101EB800041684968416000F12F
:10A560000803994201D1496841604068C0681060A1
:10A570007047FEE710000020D00200201CB51F49E4
:10A5800008780190FF200870087800909DF800007E
:10A590009DF8002000F0F000904200D0FEE79DF80A
:10A5A0000000174C00F0500020700720A06006E06B
:10A5B000A068401EA0609DF80000400000909DF83B
:10A5C00000000006F4D4A068032800D0FEE74FF492
:10A5D0004070A060019808700A48016841F4700159
:10A5E0000160016841F070410160FFF767FE0020E3
:10A5F0006060FBF7B9FD00201CBD000000E400E036
:10A600007000002020ED00E0F8B505460E46174624
:10A61000002D07D005FB06F02EB1B0FBF6F1A942E4
:10A6200001D0FEE7FEE700F14801814200D8FEE7D5
:10A630000846FEF7CDFC04463CB1224648323B4674
:10A64000314628460094FEF7ADFB2046F8BD0000D9
:10A6500070B504460D46002C25D0FFF7E5FDD4E982
:10A660000F20216802FB0011A1600021A163216875
:10A670006160E06B2268216C401E00FB0121E160FB
:10A680004FF0FF3084F8440084F8450004F11000D6
:10A6900055B1FFF796FD04F12400FFF792FDFFF797
:10A6A000DBFD012070BDFEE721690029F7D000F035
:10A6B000F1F90028F3D004494FF080500860BFF34F
:10A6C0004F8FBFF36F8FEAE704ED00E070B50446EB
:10A6D0000E46002C02D0206C08B1FEE7FEE7206891
:10A6E00010B9A06800B1FEE7FFF7FAFD5020EFF3C4
:10A6F000118580F31188BFF34F8FBFF36F8FA26B6B
:10A70000E06B90421BD994F94500521CA263411C96
:10A7100006D07F2812D0401C84F8450001200FE0AD
:10A72000606A0028FAD004F1240000F0B3F9002890
:10A73000F4D0002EF2D001203060EFE7FEE70020D9
:10A7400085F3118870BD00002DE9F34383B0044602
:10A750000025A946002C02D0206C08B1FEE7FEE7D8
:10A7600000264FF08057DFF81481FFF75DFDA06BE6
:10A77000C8B1401EA063206810B9FEF78BFCA06032
:10A78000206950B104F1100000F084F928B1C8F834
:10A790000070BFF34F8FBFF36F8FFFF75DFD012098
:10A7A00005B0BDE8F083049808B145B10BE0B9F1FC
:10A7B000000F00D0FEE7FFF74FFD0020F0E701A8F3
:10A7C000FFF71CFE0125FFF747FDFFF7A7FEFFF788
:10A7D0002BFD94F94400401C01D184F8446094F9A5
:10A7E0004500401C01D184F84560FFF735FD04A900
:10A7F00001A800F045F8C8B12046FEF7B1FB00F013
:10A800007FF92046FEF77EFB0028AED0B9F1000F9D
:10A810000AD0FFF709FD2046FEF780FA0146A0683E
:10A82000FFF70CFEFFF718FD0020B9E72046FEF702
:10A8300069FBE0B1206838B9FFF7F6FCA06800F0CA
:10A84000E1F88146FFF708FD04F124000499FFF7C1
:10A85000E3FD2046FEF784FB00F052F9002884D186
:10A86000C8F80070BFF34F8FBFF36F8F7DE72046AE
:10A87000FEF776FB00F044F977E7000004ED00E016
:10A880002DE9F04105460C46002D14D0A4B1FFF788
:10A89000CBFC134EF0686B68C11A2268571C0CD0B1
:10A8A0002F68D6F820C00026674508D0834206D816
:10A8B000012526600EE0FEE7FEE700250AE08A4259
:10A8C00006D9501A20602846FFF798FD002501E0C0
:10A8D00026600125FFF7C0FC2846BDE8F081000096
:10A8E000100000202DE9FF5F8146DDE90E788A46E1
:10A8F00016469B46B000FEF76BFB054628000AD0C3
:10A900005020FEF765FB04460CB1256304E02846A1
:10A91000FFF7B0FC00E000248CB10020CDE902403C
:10A92000CDE900785B46324651464846FEF746FA86
:10A930002046FEF787F9012004B0BDE8F09F4FF0F4
:10A94000FF30F9E72DE9F04100262C4F786B002805
:10A9500005D0B869401CB8613046BDE8F081FD689B
:10A960006D1CFD6065B9B86B006800B1FEE7B86B9F
:10A97000F96BB963F863386A401C3862FEF7D0FAA5
:10A98000B86ADFF87C8085420DD3B86B006838B1B7
:10A99000B86BC068C4686068854212D2B86202E0D1
:10A9A0004FF0FF30B8623868C06A00EB800058F89A
:10A9B0002000012800D90126F8690028CCD0012602
:10A9C000CAE7201DFFF7EAFBA06A18B104F11800DE
:10A9D000FFF7E4FBE06A01213A69814011433961E4
:10A9E00000EB800008EB8000211DFFF710FCE06AFF
:10A9F0003968C96A8842C8D30126C6E7100000201A
:10AA0000D002002070B504460020002C35D01F4D28
:10AA1000E16A2A68D26A914230D2A069002804DB38
:10AA20002868C06AC0F10500A061E06A184E00EB1A
:10AA30008000616906EB800081421AD1201DFFF77A
:10AA4000ADFB012130B994F82C002A6901FA00F01D
:10AA500082432A612868C06AE0622A698140114302
:10AA6000296100EB800006EB8000211DFFF7CFFB82
:10AA700002E02868C06AE062012070BD216C2A688B
:10AA8000D26A9142F9D2012070BD0000100000206E
:10AA9000D00200202DE9F041C068C468002C15D018
:10AAA00004F118000746FFF779FB134D6A6B012686
:10AAB0006AB139461148FFF7AAFBE06A2968C96AFA
:10AAC000884217D90120EE61BDE8F081FEE7201D24
:10AAD000FFF764FBE06A2A6906FA00F11143296175
:10AAE000064900EB80008C3901EB8000211DFFF747
:10AAF0008EFBE2E70020E7E7100000205C03002067
:10AB00002DE9F041002400272A4D686B002807D06A
:10AB1000FFF78AFB686B401E6863686B08B143E00F
:10AB2000FEE7A868E8B3DFF8908001261EE0D8F8B9
:10AB30000C00C46804F11800FFF730FB201DFFF77C
:10AB40002DFBE06A2A6906FA00F1114329611A49CE
:10AB500000EB80008C3901EB8000211DFFF757FBD3
:10AB6000E06A2968C96A884200D3EE61D8F800001B
:10AB70000028DCD10CB1FEF7D3F9AC6944B1FFF782
:10AB8000E1FE00B1EE61641E002CF8D10020A86146
:10AB9000E86930B10127094938070860BFF34F8FD2
:10ABA00000E001E0BFF36F8FFFF756FB3846BDE8CA
:10ABB000F0810000100000205C03002004ED00E0A4
:10ABC00068656C70000000000000000000000000DC
:10ABD00000000000B57B000800000000766572737D
:10ABE000696F6E000000000000000000000000001F
:10ABF000C97F0008000000007365742D7072696ED3
:10AC0000740000000000000000000000997E0008B1
:10AC1000000000007365742D70776D000000000067
:10AC20000000000000000000B97E000800000000E5
:10AC30007365742D6C636400000000000000000068
:10AC400000000000657D0008000000007365742DA1
:10AC50006C6576656C0000000000000000000000DC
:10AC6000A57D0008000000007365742D7374617287
:10AC7000742D6C6576656C0000000000357F00085F
:10AC8000000000007365742D64656661756C740066
:10AC90000000000000000000617D000800000000CE
:10ACA00073686F772D636F6E666967000000000040
:10ACB00000000000BD7F00080000000074732D72CA
:10ACC00065736574000000000000000000000000D3
:10ACD000C17F000800000000757074696D65000098
:10ACE000000000000000000000000000C57F000818
:10ACF000000000007365742D6D61782D6C657665BC
:10AD00006C00000000000000197E00080000000038
:10AD10000000000000000000000000000000000033
:10AD2000000000000000000000000000080A0D09FB
:10AD3000006D4941424344584B4D504A404C6C6869
:10AD40006E4873757E000000E9870008E9870008F7
:10AD5000298A000891880008658900082989000867
:10AD6000E9870008E9870008E9870008E987000803
:10AD7000E9870008E9870008E9870008E9870008F3
:10AD8000E9870008E9870008E9870008E9870008E3
:10AD9000E98700080D8800084D88000845890008EB
:10ADA000F98800088589000864000000640000003C
:10ADB000130000005A000000D7000000280A00001D
:10ADC00000404040404040404040414141414140BE
:10ADD0004040404040404040404040404040404073
:10ADE0004005020202020202020202020202020202
:10ADF0000220202020202020202020020202020207
:10AE0000020290909090909010101010101010105E
:10AE1000101010101010101010101010020202026A
:10AE200002028888888888880808080808080808AE
:10AE300008080808080808080808080802020202AA
:10AE400040000000C1AD00087365742D6C63642080
:10AE500070776D312070776D322070776D33203AC6
:10AE600020636F6E66696720746865207370656320
:10AE700069666963206C6576656C20776974682003
:10AE800070776D2064757479206379636C652E0D1D
:10AE90000A00000073686F772D636F6E6669672024
:10AEA00020202020202020202020203A2073686F9E
:10AEB0007720636F727265637420696E666F726D5E
:10AEC0006174696F6E206F66206C63642070616EC0
:10AED0006E656C2E0D0A00007365742D70776D2001
:10AEE00070776D2020202020202020202020203A54
:10AEF000207573656420746F20636F72726563746C
:10AF00002070616E6E656C20666F72206661746F72
:10AF1000727920746573742E0D0A000020202020A1
:10AF20002020202020202020202020202020202021
:10AF30002020203A2070776D28312D332920666F2C
:10AF40007220302E3563642F6D2A6D203263642F9A
:10AF50006D2A6D203563642F6D2A6D0D0A00000087
:10AF60004275696C6474696D65203A4D6179203170
:10AF70003820323032332030393A32313A353600E7
:10AF80003000000000000000000000000000000091
:10AF90000000000000000000000000006E00000043
:10AFA00000000000000000000000000000000000A1
:10AFB0000000000000000000D8AF000800000020E2
:10AFC000B00200003269000858B00008B00200204A
:10AFD000283A0000F86B000832011360AF4308689C
:10AFE000125C0230080233041AAA014100091863F6
:10AFF00063406D63753A200B30C0AB9001ED124495
:10B0000055401107263302069D080140040C021129
:10B0100008130306540C01403A010E2169100A1965
:10B02000022C1955B92C195932FF32643213325A95
:10B0300032D73B280A1C1C4002075D31635D1A9A17
:10B04000014C021080BF3801400E0625C4298C79BE
:08B050000C29D12BF36F0E5106
:04000005080061315D
:00000001FF
